{
  "address": "0x282Ad722B1e53396Ac9333FD2Da1A9303682C21f",
  "abi": [
    {
      "inputs": [
        {
          "internalType": "address payable",
          "name": "diceGameAddress",
          "type": "address"
        }
      ],
      "stateMutability": "nonpayable",
      "type": "constructor"
    },
    {
      "inputs": [],
      "name": "RiggedRoll__LowerThan2",
      "type": "error"
    },
    {
      "inputs": [],
      "name": "RiggedRoll__NotEnoughEth",
      "type": "error"
    },
    {
      "inputs": [],
      "name": "RiggedRoll__TransferFailed",
      "type": "error"
    },
    {
      "anonymous": false,
      "inputs": [
        {
          "indexed": true,
          "internalType": "address",
          "name": "previousOwner",
          "type": "address"
        },
        {
          "indexed": true,
          "internalType": "address",
          "name": "newOwner",
          "type": "address"
        }
      ],
      "name": "OwnershipTransferred",
      "type": "event"
    },
    {
      "inputs": [],
      "name": "diceGame",
      "outputs": [
        {
          "internalType": "contract DiceGame",
          "name": "",
          "type": "address"
        }
      ],
      "stateMutability": "view",
      "type": "function"
    },
    {
      "inputs": [],
      "name": "owner",
      "outputs": [
        {
          "internalType": "address",
          "name": "",
          "type": "address"
        }
      ],
      "stateMutability": "view",
      "type": "function"
    },
    {
      "inputs": [],
      "name": "renounceOwnership",
      "outputs": [],
      "stateMutability": "nonpayable",
      "type": "function"
    },
    {
      "inputs": [],
      "name": "riggedRoll",
      "outputs": [],
      "stateMutability": "nonpayable",
      "type": "function"
    },
    {
      "inputs": [
        {
          "internalType": "address",
          "name": "newOwner",
          "type": "address"
        }
      ],
      "name": "transferOwnership",
      "outputs": [],
      "stateMutability": "nonpayable",
      "type": "function"
    },
    {
      "inputs": [
        {
          "internalType": "address",
          "name": "_addr",
          "type": "address"
        },
        {
          "internalType": "uint256",
          "name": "_amount",
          "type": "uint256"
        }
      ],
      "name": "withdraw",
      "outputs": [],
      "stateMutability": "payable",
      "type": "function"
    },
    {
      "stateMutability": "payable",
      "type": "receive"
    }
  ],
  "transactionHash": "0x192a35431d031b137811d3a75bb588b846da058789dab4ec39a627c4d52aaa47",
  "args": [
    "0xE5c71f96F5D017C26f79c78446D97D48514610D0"
  ],
  "solcInputHash": "b7ade2a9f70e6134c1c2f42ca3995f1b",
  "bytecode": "0x608060405234801561001057600080fd5b5060405161091738038061091783398101604081905261002f916100ad565b6100383361005d565b600180546001600160a01b0319166001600160a01b03929092169190911790556100db565b600080546001600160a01b038381166001600160a01b0319831681178455604051919092169283917f8be0079c531659141344cd1fd0a4f28419497f9722a3daafe3b4186f6b6457e09190a35050565b6000602082840312156100be578081fd5b81516001600160a01b03811681146100d4578182fd5b9392505050565b61082d806100ea6000396000f3fe6080604052600436106100595760003560e01c80636b5e97f814610065578063715018a61461007c5780638da5cb5b146100915780638e288fd1146100c7578063f2fde38b146100e7578063f3fef3a31461010757600080fd5b3661006057005b600080fd5b34801561007157600080fd5b5061007a61011a565b005b34801561008857600080fd5b5061007a6103ad565b34801561009d57600080fd5b506000546001600160a01b03165b6040516001600160a01b03909116815260200160405180910390f35b3480156100d357600080fd5b506001546100ab906001600160a01b031681565b3480156100f357600080fd5b5061007a610102366004610647565b6103ec565b61007a610115366004610668565b610487565b66071afd498d000047101561017d57610164604051806040016040528060018152602001600960f81b8152506040518060600160405280602781526020016107d16027913961052a565b604051631b183e7560e11b815260040160405180910390fd5b600061018a60014361078d565b6001546040805163057ff68760e51b815290519240935060009284926001600160a01b031691829163affed0e091600480820192602092909190829003018186803b1580156101d857600080fd5b505afa1580156101ec573d6000803e3d6000fd5b505050506040513d601f19601f820116820180604052508101906102109190610691565b6040516020016102459392919092835260609190911b6bffffffffffffffffffffffff19166020830152603482015260540190565b60408051601f1981840301815291905280516020909101209050600061026c6010836107b0565b90506102be604051806040016040528060018152602001600960f81b815250604051806040016040528060148152602001731010102934b3b3b2b2102234b1b2902937b6361d60611b81525083610573565b60028111156102e05760405163c8d5267760e01b815260040160405180910390fd5b610338604051806040016040528060018152602001600960f81b8152506040518060400160405280601c81526020017f202020526f6c6c696e672074686520526967676564204469636521210000000081525061052a565b600160009054906101000a90046001600160a01b03166001600160a01b0316637d789dee66071afd498d00006040518263ffffffff1660e01b81526004016000604051808303818588803b15801561038f57600080fd5b505af11580156103a3573d6000803e3d6000fd5b5050505050505050565b6000546001600160a01b031633146103e05760405162461bcd60e51b81526004016103d790610758565b60405180910390fd5b6103ea60006105ba565b565b6000546001600160a01b031633146104165760405162461bcd60e51b81526004016103d790610758565b6001600160a01b03811661047b5760405162461bcd60e51b815260206004820152602660248201527f4f776e61626c653a206e6577206f776e657220697320746865207a65726f206160448201526564647265737360d01b60648201526084016103d7565b610484816105ba565b50565b6000546001600160a01b031633146104b15760405162461bcd60e51b81526004016103d790610758565b6000826001600160a01b03168260405160006040518083038185875af1925050503d80600081146104fe576040519150601f19603f3d011682016040523d82523d6000602084013e610503565b606091505b50509050806105255760405163f34966a760e01b815260040160405180910390fd5b505050565b61056f82826040516024016105409291906106f4565b60408051601f198184030181529190526020810180516001600160e01b0316634b5c427760e01b17905261060a565b5050565b61052583838360405160240161058b93929190610722565b60408051601f198184030181529190526020810180516001600160e01b031663f362ca5960e01b17905261060a565b600080546001600160a01b038381166001600160a01b0319831681178455604051919092169283917f8be0079c531659141344cd1fd0a4f28419497f9722a3daafe3b4186f6b6457e09190a35050565b80516a636f6e736f6c652e6c6f67602083016000808483855afa5050505050565b80356001600160a01b038116811461064257600080fd5b919050565b600060208284031215610658578081fd5b6106618261062b565b9392505050565b6000806040838503121561067a578081fd5b6106838361062b565b946020939093013593505050565b6000602082840312156106a2578081fd5b5051919050565b60008151808452815b818110156106ce576020818501810151868301820152016106b2565b818111156106df5782602083870101525b50601f01601f19169290920160200192915050565b60408152600061070760408301856106a9565b828103602084015261071981856106a9565b95945050505050565b60608152600061073560608301866106a9565b828103602084015261074781866106a9565b915050826040830152949350505050565b6020808252818101527f4f776e61626c653a2063616c6c6572206973206e6f7420746865206f776e6572604082015260600190565b6000828210156107ab57634e487b7160e01b81526011600452602481fd5b500390565b6000826107cb57634e487b7160e01b81526012600452602481fd5b50069056fe20202052696767656420436f6e74726163742042616c616e636520696e73756666696369656e74a2646970667358221220356ce754aecd3c555e1a02c8a389e9899278a3261dd3fa08e3e1ae4e891999c364736f6c63430008040033",
  "devdoc": {
    "kind": "dev",
    "methods": {
      "owner()": {
        "details": "Returns the address of the current owner."
      },
      "renounceOwnership()": {
        "details": "Leaves the contract without owner. It will not be possible to call `onlyOwner` functions anymore. Can only be called by the current owner. NOTE: Renouncing ownership will leave the contract without an owner, thereby removing any functionality that is only available to the owner."
      },
      "transferOwnership(address)": {
        "details": "Transfers ownership of the contract to a new account (`newOwner`). Can only be called by the current owner."
      }
    },
    "version": 1
  },
  "userdoc": {
    "kind": "user",
    "methods": {},
    "version": 1
  },
  "storageLayout": {
    "storage": [
      {
        "astId": 7,
        "contract": "contracts/RiggedRoll.sol:RiggedRoll",
        "label": "_owner",
        "offset": 0,
        "slot": "0",
        "type": "t_address"
      },
      {
        "astId": 298,
        "contract": "contracts/RiggedRoll.sol:RiggedRoll",
        "label": "diceGame",
        "offset": 0,
        "slot": "1",
        "type": "t_contract(DiceGame)282"
      }
    ],
    "types": {
      "t_address": {
        "encoding": "inplace",
        "label": "address",
        "numberOfBytes": "20"
      },
      "t_contract(DiceGame)282": {
        "encoding": "inplace",
        "label": "contract DiceGame",
        "numberOfBytes": "20"
      }
    }
  }
}