{
  "_format": "hh-sol-artifact-1",
  "contractName": "DiceGame",
  "sourceName": "contracts/DiceGame.sol",
  "abi": [
    {
      "inputs": [],
      "stateMutability": "payable",
      "type": "constructor"
    },
    {
      "anonymous": false,
      "inputs": [
        {
          "indexed": true,
          "internalType": "address",
          "name": "player",
          "type": "address"
        },
        {
          "indexed": false,
          "internalType": "uint256",
          "name": "roll",
          "type": "uint256"
        }
      ],
      "name": "Roll",
      "type": "event"
    },
    {
      "anonymous": false,
      "inputs": [
        {
          "indexed": false,
          "internalType": "address",
          "name": "winner",
          "type": "address"
        },
        {
          "indexed": false,
          "internalType": "uint256",
          "name": "amount",
          "type": "uint256"
        }
      ],
      "name": "Winner",
      "type": "event"
    },
    {
      "inputs": [],
      "name": "nonce",
      "outputs": [
        {
          "internalType": "uint256",
          "name": "",
          "type": "uint256"
        }
      ],
      "stateMutability": "view",
      "type": "function"
    },
    {
      "inputs": [],
      "name": "prize",
      "outputs": [
        {
          "internalType": "uint256",
          "name": "",
          "type": "uint256"
        }
      ],
      "stateMutability": "view",
      "type": "function"
    },
    {
      "inputs": [],
      "name": "rollTheDice",
      "outputs": [],
      "stateMutability": "payable",
      "type": "function"
    },
    {
      "stateMutability": "payable",
      "type": "receive"
    }
  ],
  "bytecode": "0x60806040526000808055600155610014610019565b610080565b606461002647600a610055565b6100309190610035565b600155565b60008261005057634e487b7160e01b81526012600452602481fd5b500490565b600081600019048311821515161561007b57634e487b7160e01b81526011600452602481fd5b500290565b6105078061008f6000396000f3fe6080604052600436106100385760003560e01c80637d789dee14610044578063affed0e01461004e578063e3ac5d261461007657600080fd5b3661003f57005b600080fd5b61004c61008c565b005b34801561005a57600080fd5b5061006460005481565b60405190815260200160405180910390f35b34801561008257600080fd5b5061006460015481565b66071afd498d00003410156100e85760405162461bcd60e51b815260206004820152601b60248201527f4661696c656420746f2073656e6420656e6f7567682076616c7565000000000060448201526064015b60405180910390fd5b60006100f560014361045f565b409050600081306000546040516020016101349392919092835260609190911b6bffffffffffffffffffffffff19166020830152603482015260540190565b60408051601f1981840301815291905280516020909101209050600061015b601083610491565b90506101ab604051806040016040528060018152602001600960f81b815250604051806040016040528060128152602001711010102234b1b29023b0b6b2902937b6361d60711b8152508361030a565b6000805490806101ba83610476565b90915550606490506101cd346028610440565b6101d7919061042c565b600160008282546101e89190610414565b909155505060405181815233907f3b718dc1d94c683363a5be695e765cb317d67c54b7b1793eaaa35965b39e0ca09060200160405180910390a2600281111561023057505050565b600154604051600090339083908381818185875af1925050503d8060008114610275576040519150601f19603f3d011682016040523d82523d6000602084013e61027a565b606091505b50509050806102c25760405162461bcd60e51b81526020600482015260146024820152732330b4b632b2103a379039b2b7321022ba3432b960611b60448201526064016100df565b6102ca610356565b60408051338152602081018490527f9c2270628a9b29d30ae96b6c4c14ed646ee134febdce38a5b77f2bde9cea2e20910160405180910390a15050505050565b610351838383604051602401610322939291906103de565b60408051601f198184030181529190526020810180516001600160e01b031663f362ca5960e01b179052610372565b505050565b606461036347600a610440565b61036d919061042c565b600155565b80516a636f6e736f6c652e6c6f67602083016000808483855afa5050505050565b60008151808452815b818110156103b85760208185018101518683018201520161039c565b818111156103c95782602083870101525b50601f01601f19169290920160200192915050565b6060815260006103f16060830186610393565b82810360208401526104038186610393565b915050826040830152949350505050565b60008219821115610427576104276104a5565b500190565b60008261043b5761043b6104bb565b500490565b600081600019048311821515161561045a5761045a6104a5565b500290565b600082821015610471576104716104a5565b500390565b600060001982141561048a5761048a6104a5565b5060010190565b6000826104a0576104a06104bb565b500690565b634e487b7160e01b600052601160045260246000fd5b634e487b7160e01b600052601260045260246000fdfea2646970667358221220b6628fceabba81d0d2f984f9ca7e281fdbd06b22d5c0dfbaa0d25005485192c064736f6c63430008040033",
  "linkReferences": {},
  "deployedLinkReferences": {}
}